:020000020000FC
:040000000C9422003A
:040010000C94F1015A
:040024000C94030233
:100040000C940D020FEF0DBF18E01EBF4079243055
:1000500019120278001808032721060E31283130C2
:10006000313031313000000000000031303100E823
:100070000093610003E0009361000FEF0AB900E014
:100080000BB90CE007B903E108B90FE104B900E0CE
:1000900005B902E00093680003E100936C0001E001
:1000A00000936E000093700000E00093C10005E033
:1000B00005BD0BEE06BD02E00093B10009E100931F
:1000C000B20049E559E563E270E080E0A2E191E326
:1000D000B1E07894D3FD429AD3FF4298D5FF02C095
:1000E000DF7DD460D7FF07C01D2F13701395DC7F11
:1000F0001370D12BDF77D6FF07C01D2F13701A9511
:10010000DC7F1370D12BDF7B1D2F137000E01013E9
:1001100001C00CC001E0101301C015C002E01013B3
:1001200001C018C003E01013D5CF19C0D2FF05C01D
:10013000D3FF02C0D77F01C0D860DB7F142F252FEB
:100140000E94B700C7CFD2FD3CC0152F262F0E94BA
:10015000B700C0CF1A2F292F0E94B700BBCF429AF9
:10016000D2FD89C0172F282F0E94B700B3CFECE42F
:10017000F0E0B0FF06C000E005B1007F086005B9FF
:100180001F70B1FF07C000E005B1007F046005B932
:1001900012951F70B2FF07C000E005B1007F02603A
:1001A00005B92F70122FB3FF08C000E005B1007F22
:1001B000016005B922952F70122FE10F04910BB940
:1001C0000895DF7D0E943601D5FD23C0D6FD12C003
:1001D000D7FFF7CFDF776395162F04E2101302C025
:1001E00060E0EFCF1F700AE01013EBCF607F00E1FB
:1001F000600FE7CFDF7B00E0601302C063E2E1CF76
:100200006A95162F1F700FE00113DBCF607F6960C6
:10021000D8CFDF7D0E943601D5FD25C0D6FD14C0A4
:10022000D7FFF7CFDF7753950AE0152F1F70101314
:10023000F0CF507F00E1500F06E0152F12951F7090
:100240001013E7CF50E0E5CFDF7B00E0501302C092
:1002500059E5DFCF5A95152F1F700FE00113D9CF45
:10026000507F5960D6CF40E0DB7D34CF152F262F4D
:100270000E94B7000895DF7D0E948F01D5FD23C045
:10028000D6FD12C0D7FFF7CFDF778395182F04E292
:10029000101302C080E0EFCF1F700AE01013EBCF05
:1002A000807F00E1800FE7CFDF7B00E0801302C09A
:1002B00083E2E1CF8A95182F1F700FE00113DBCF87
:1002C000807F8960D8CFDF7D0E948F01D5FD25C05A
:1002D000D6FD14C0D7FFF7CFDF7773950AE0172F4D
:1002E0001F701013F0CF707F00E1700F06E0172F22
:1002F00012951F701013E7CF70E0E5CFDF7B00E0B1
:10030000701302C079E5DFCF7A95172F1F700FE0C9
:100310000113D9CF707F7960D6CFDB7DDBCE172F6D
:10032000282F0E94B7000895DF77D3FF09C010E09F
:10033000571313956813139500E0011301C0439AF6
:1003400043950AE0142F1F7010134AC0407F00E14C
:10035000400F06E0142F12951F70101341C04F700C
:1003600053950AE0152F1F7010133AC0507F00E11B
:10037000500F06E0152F12951F70101331C05F70DB
:100380006395162F1F700AE0101304C0607F00E110
:10039000600F26C004E2162F101322C060E0939570
:1003A0000AE0192F1F70101303C0907F00E1900F17
:1003B000ECE5F0E01A2F1A95E10F0491039509136B
:1003C0000FC091E0A3950AE01A2F1F70101303C00D
:1003D000A07F00E1A00F03E11A2F101301C0A1E0DC
:1003E0000895C7FD1895439B02C04398D77FCFEF70
:1003F000309902C0D0641895319901C0D068349901
:100400001895D062189509E10093B200C7FDCA950E
:10041000BB0FB4FDB1E0B89A1895D7FD11C00BEE33
:1004200006BD02E3301301C045983A9549F43D2FCB
:10043000337002E03013459A34E6D4FF0E949401F1
:0204400018950D
:00000001FF
