:020000020000FC
:040000000C9422003A
:040010000C946701E4
:040024000C947901BE
:100040000C9483010FEF0DBF18E01EBF40792430E0
:1000500019120278001808032721060E31283130C2
:10006000313031313000000000000031303100E823
:100070000093610003E0009361000FEF0AB900E014
:100080000BB90CE007B903E108B90FE104B900E0CE
:1000900005B902E00093680003E100936C0001E001
:1000A00000936E000093700000E00093C10005E033
:1000B00005BD0BEE06BD02E00093B10002E3009324
:1000C000B20049E559E563E270E080E0A2E191E326
:1000D000B1E07894D3FD429AD3FF4298D5FF02C095
:1000E000DF7DD460D7FF07C01D2F13701395DC7F11
:1000F0001370D12BDF77D6FF07C01D2F13701A9511
:10010000DC7F1370D12BDF7B1D2F137000E01013E9
:1001100001C00CC001E0101301C015C002E01013B3
:1001200001C018C003E01013D5CF19C0D2FF05C01D
:10013000D3FF02C0D77F01C0D860DB7F142F252FEB
:100140000E94B400C7CFD2FD2DC0152F262F0E94CC
:10015000B400C0CF192F2A2F0E94B400BBCF172F95
:10016000282F0E94B400B6CFECE4F0E0B0FF03C04B
:1001700008E005B91F70B1FF04C004E005B912958D
:100180001F70B2FF04C002E005B92F70122FB3FF39
:1001900005C001E005B922952F70122FE10F0491DF
:1001A0000BB90895DF7D0E940501D5FD12C0D7FF70
:1001B000F9CFDF776395162F04E2101302C060E0D9
:1001C000F1CF1F700AE01013EDCF607F00E1600FE8
:1001D000E9CFDF7D0E940501D7FD14C0D6FFF9CF1E
:1001E000DF7753950AE0152F1F701013F2CF507F61
:1001F00000E1500F06E0152F12951F701013E9CF84
:1002000050E0E7CF40E0DB7D65CF152F262F0E9421
:10021000B4000895DF77D3FF09C010E0571313959A
:100220006813139500E0011301C0439A43950AE057
:10023000142F1F7010134AC0407F00E1400F06E0EA
:10024000142F12951F70101341C04F7053950AE080
:10025000152F1F7010133AC0507F00E1500F06E0B9
:10026000152F12951F70101331C05F706395162FF4
:100270001F700AE0101304C0607F00E1600F26C009
:1002800004E2162F101322C060E093950AE0192FA4
:100290001F70101303C0907F00E1900FECE5F0E0B9
:1002A0001A2F1A95E10F0491039509130FC091E0DD
:1002B000A3950AE01A2F1F70101303C0A07F00E15E
:1002C000A00F03E11A2F101301C0A1E00895C7FD8C
:1002D0001895439B02C04398D77FCFEF309902C057
:1002E000D0641895319901C0D06834991895D062BE
:1002F000189502E30093B200C7FDCA95BB0FB4FD89
:10030000B1E0B89A1895D7FD08C00BEE06BD3A9536
:0C03100021F434E6D4FF0E940A01189585
:00000001FF
