:020000020000FC
:040000000C9422003A
:040010000C945C01EF
:040024000C946801CF
:100040000C9472010FEF0DBF18E01EBF40792430F1
:1000500019120278001808032721060E31283130C2
:10006000313031313000000000000031303100E823
:100070000093610003E0009361000FEF0AB900E014
:100080000BB90CE007B903E108B90FE104B900E0CE
:1000900005B902E00093680003E100936C0001E001
:1000A00000936E000093700000E00093C10005E033
:1000B00005BD0BEE06BD02E00093B10002E3009324
:1000C000B20049E559E563E270E080E0A2E191E326
:1000D000B1E07894D3FD429AD3FF4298D7FF02C093
:1000E000DF77D460D6FF06C01D2F13701395DC7F19
:1000F000D12BDF7B1D2F137000E0101301C00CC04B
:1001000001E0101301C015C002E0101301C018C0B7
:1001100003E01013DFCF19C0D3FD03C0D2FDD860B8
:1001200002C0D2FDD77FDB7F142F252F0E94AA00AB
:10013000D1CFD2FD2DC0152F262F0E94AA00CACFE5
:10014000192F2A2F0E94AA00C5CF172F282F0E94EF
:10015000AA00C0CFECE4F0E0B0FF03C008E005B9AE
:100160001F70B1FF04C004E005B912951F70B2FF03
:1001700004C002E005B92F70122FB3FF05C001E0E3
:1001800005B922952F70122FE10F04910BB9089534
:10019000DF770E94FB00D7FD12C0D6FFF9CFDF7BCF
:1001A0006395162F04E2101302C060E0F1CF1F70B8
:1001B0000AE01013EDCF607F00E1600FE9CFDF7739
:1001C0000E94FB00D7FD14C0D6FFF9CFDF7B53950B
:1001D0000AE0152F1F701013F2CF507F00E1500F6F
:1001E00006E0152F12951F701013E9CF50E0E7CFEE
:1001F00040E0DB776FCF152F262F0E94AA000895CD
:10020000DF77D3FF08C010E05713139568131395D9
:1002100000E00113439A43950AE0142F1F70101356
:100220004AC0407F00E1400F06E0142F12951F7076
:10023000101341C04F7053950AE0152F1F70101313
:100240003AC0507F00E1500F06E0152F12951F7045
:10025000101331C05F706395162F1F700AE01013E2
:1002600004C0607F00E1600F26C004E2162F101367
:1002700022C060E093950AE0192F1F70101303C08D
:10028000907F00E1900FECE5F0E01A2F1A95E10F56
:100290000491039509130FC091E0A3950AE01A2F6A
:1002A0001F70101303C0A07F00E1A00F03E11A2FFD
:1002B000101301C0A1E00895C7FD18954398CFEF32
:1002C000309902C0D064189531991895D068189566
:1002D00002E30093B200C7FDCA95BB0FB4FDB1E0C5
:1002E000B89A1895D7FD08C00BEE06BD3A9521F4D3
:0A02F00034E6D4FF0E9400011895C7
:00000001FF
