:020000020000FC
:040000000C9422003A
:040010000C945102F9
:040024000C946502D1
:100040000C9472020FEF0DBF18E01EBF40792430F0
:1000500019120278001808032721060E31283130C2
:10006000313031313000000000000031303100E823
:100070000093610003E0009361000FEF0AB900E014
:100080000BB90CE007B903E108B90FE104B900E0CE
:1000900005B902E00093680003E100936C0001E001
:1000A00000936E000093700000E00093C10005E033
:1000B00005BD0BEE06BD02E00093B10009E100931F
:1000C000B20049E559E563E270E080E0A2E191E326
:1000D000B1E07894D3FD429AD3FF4298D5FF02C095
:1000E000DF7DD460D7FF07C0DF771D2F1370139516
:1000F000DC7F1370D12BD6FF07C0DF7B1D2F137061
:100100001A95DC7F1370D12B1D2F137000E0101394
:1001100001C00CC001E0101301C015C002E01013B3
:1001200001C018C003E01013D5CF1BC0D2FF05C01B
:10013000D3FF02C0D77F01C0D860DB7F142F252FEB
:100140000E94B800C7CFD2FD3DC0152F262F0E94B8
:10015000B800C0CFD2FDEAC01A2F292F0E94B800E4
:10016000B9CFD2FD89C0172F282F0E94B800B2CF77
:10017000ECE4F0E0B0FF06C000E005B1007F0860ED
:1001800005B91F70B1FF07C000E005B1007F046032
:1001900005B912951F70B2FF07C000E005B1007FDE
:1001A000026005B92F70122FB3FF08C000E005B13F
:1001B000007F016005B922952F70122FE10F049185
:1001C0000BB90895DF7D0E943701D5FD23C0D6FD10
:1001D00012C0D7FFF7CFDF776395162F04E2101315
:1001E00002C060E0EFCF1F700AE01013EBCF607F1A
:1001F00000E1600FE7CFDF7B00E0601302C063E245
:10020000E1CF6A95162F1F700FE00113DBCF607FDF
:100210006960D8CFDF7D0E943701D5FD25C0D6FDAE
:1002200014C0D7FFF7CFDF7753950AE0152F1F7063
:100230001013F0CF507F00E1500F06E0152F1295FC
:100240001F701013E7CF50E0E5CFDF7B00E05013C5
:1002500002C059E5DFCF5A95152F1F700FE001132B
:10026000D9CF507F5960D6CF40E0DB7D33CF152FFB
:10027000262F0E94B8000895DF7D0E949101D5FDD0
:1002800023C0D6FD12C0D7FFF7CFDF778395182F95
:1002900004E2101302C080E0EFCF1F700AE01013D9
:1002A000EBCF807F00E1800FE7CFDF7B00E08013A2
:1002B00002C083E2E1CF8A95182F1F700FE001136F
:1002C000DBCF807F8960D8CFDF7D0E949101D5FD93
:1002D00025C0D6FD14C0D7FFF7CFDF7773950AE0AE
:1002E000172F1F701013F0CF707F00E1700F06E022
:1002F000172F12951F701013E7CF70E0E5CFDF7B4B
:1003000000E0701302C079E5DFCF7A95172F1F70D8
:100310000FE00113D9CF707F7960D6CFDB7DD86035
:10032000D9CE172F282F0E94B8000895DF7D0E9494
:10033000EF01D5FD21C0D6FD12C0D7FFF7CFDF7783
:10034000A3950AE01A2F1F70101303C0A07F00E1CD
:10035000A00F03E11A2F1013E9CFA1E0E7CFDF7B55
:10036000AA950FE01A2F1F70101301C0A97F00E09B
:100370000A13DCCFA2E1DACF91E0DF7D0E94EF012A
:10038000D5FD2BC0D6FD17C0D7FFF7CFDF779395EC
:100390000AE0192F1F70101303C0907F00E1900F27
:1003A000ECE5F0E01A2F1A95E10F0491039509137B
:1003B000E4CF91E0E2CFDF7B9A950FE0192F1F7019
:1003C000101301C0997F00E00913D7CFECE5F0E0EE
:1003D0001A2F1A95E10F9491D0CFDB7D7BCE292F78
:1003E0001A2F0E94B8000895DF77D3FF09C010E0EC
:1003F000571313956813139500E0011301C0439A36
:1004000043950AE0142F1F7010134AC0407F00E18B
:10041000400F06E0142F12951F70101341C04F704B
:1004200053950AE0152F1F7010133AC0507F00E15A
:10043000500F06E0152F12951F70101331C05F701A
:100440006395162F1F700AE0101304C0607F00E14F
:10045000600F26C004E2162F101322C060E09395AF
:100460000AE0192F1F70101303C0907F00E1900F56
:10047000ECE5F0E01A2F1A95E10F049103950913AA
:100480000FC091E0A3950AE01A2F1F70101303C04C
:10049000A07F00E1A00F03E11A2F101301C0A1E01B
:1004A0000895D4FD1895439B03C04398D77F1895B2
:1004B000CFEFD061309902C0D0641895319901C056
:1004C000D06834991895D062189509E10093B2006C
:1004D000D4FF03C0CA9509F4DF7EBB0FB4FDB1E0C1
:1004E000B89A18950BEE06BDD2FD07C00D2F03700C
:1004F0000230A9F0033099F005C00BE4301307C0B7
:10050000459A05C002E330130AC0459A08C002E3C9
:10051000301301C0459809E1301301C0459A3A955E
:1005200051F40D2F0370033039F0459834E6D4FDB3
:1005300002C00E94F4011895459A0E94F401189592
:00000001FF
