:020000020000FC
:040000000C9422003A
:040010000C94CB0081
:040024000C94CC006C
:100040000C94D4000FEF0DBF18E01EBF3F065B4FAE
:10005000666D7D077F67777C585E79711F1C1F1E58
:100060001F1E1F1F1E1F1E1F00E80093610003E0DC
:10007000009361000FEF0AB900E00BB900E007B987
:1000800000E008B90FE104B900E005B902E000930F
:10009000680003E000936C0001E000936E000093A1
:1000A000700000E00093C10005E005BD0BEE06BD49
:1000B00002E00093B10002EC0093B20040E050E097
:1000C00060E070E080E090E0C1E078941F2F17704E
:1000D00000E0101301C004C001E01013F7CF22C0EC
:1000E000142F252FECE4F0E0C0FF04C008E005B9B0
:1000F000142F1F70C1FF05C004E005B9142F12951D
:100100001F70C2FF04C002E005B9152F1F70C3FFA6
:1001100005C001E005B9152F12951F70E10F04917C
:100120000BB9D4CFD3CFFF7743950AE0142F1F70BC
:10013000101330C0407F00E1400F06E0142F1295ED
:100140001F70101327C04F7053950AE0152F1F70B2
:10015000101320C0507F00E1500F06E0152F1295BC
:100160001F70101317C05F706395162F1F7004E087
:10017000101301C007C00AE010130CC0607F00E13B
:10018000600F08C002E0162F02951F701013F3CF06
:100190006070A3950895189502EC0093B200CC0FFF
:1001A000C4FDC1E0B89A18950BEE06BD3A9519F456
:0801B00034E60E94930018954B
:00000001FF
